:020000040800F2
:100000005009002001010008131600088D14000893
:10001000111600086D0100081D1C000800000000FA
:100020000000000000000000000000003919000876
:10003000A7010008000000003D1800083B19000857
:100040001B0100081B0100081B0100081B01000820
:100050001B0100081B0100081B0100081B01000810
:100060001B0100081B0100081B0100081B01000800
:100070001B0100081B0100081B010008710100089A
:100080001B0100081B0100081B0100081B010008E0
:100090001B0100081B0100081B0100081B010008D0
:1000A0001B0100081B0100081B0100081B010008C0
:1000B0001B0100081B0100081B0100081B010008B0
:1000C0001B0100081B0100081B0100081B010008A0
:1000D0001B010008051C00081B0100081B0100088B
:1000E0001B0100081B0100081B010008DFF80CD0F1
:1000F00000F02AF800480047ED1C000850090020D5
:100100000648804706480047FEE7FEE7FEE7FEE7B1
:10011000FEE7FEE7FEE7FEE7FEE7FEE78D190008D3
:10012000ED000008D2B201E000F8012B491EFBD21D
:1001300070470022F6E710B513460A4604461946F2
:10014000FFF7F0FF204610BD064C074D06E0E068C3
:1001500040F0010394E8070098471034AC42F6D30E
:10016000FFF7C8FFB01D0008D01D0008FEE7000023
:10017000014800F089B800000805002030B590F86B
:1001800040500124AC40C56B6C60046863604368F8
:10019000102B036803D099600068C26030BD9A607C
:1001A0000068C16030BD7047704710B590F82110ED
:1001B0000022022905D00421816380F8202001203B
:1001C00010BD01680B6823F00E030B6001680B681B
:1001D00023F001030B6090F84030C46B012101FA59
:1001E00003F3636080F8211080F82020104610BDD2
:1001F00010B590F821100024022903D00421816356
:1002000001243DE001680A6822F00E020A600168DC
:100210000A6822F001020A601A4A0168914201D17B
:10022000012121E0174A1432914201D110211BE033
:10023000144A2832914201D1891515E0114A3C3205
:10024000914201D189140FE00E4A5032914202D1FD
:100250004FF4803108E00B4A6432914202D14FF4EE
:10026000801101E04FF08071064A083A5160012187
:1002700080F82110002180F82010416B01B18847DF
:10028000204610BD080002402DE9F05FC16B0C68EC
:1002900001680B68D0F840C0042202FA0CF2494D04
:1002A000DFF824A1494E4A4FDFF828B1DFF828E1F2
:1002B00022422CD05A072AD50A68920603D40A682B
:1002C00022F004020A600168A94201D1042219E067
:1002D000514501D1402215E0B14202D14FF4806274
:1002E00010E0B94202D14FF480420BE0594502D1EF
:1002F0004FF4802206E0714502D14FF4800201E004
:100300004FF080622F4908394A60C16A3BE04FF0E4
:10031000020808FA0CF818EA040F4FF000094FF031
:10032000010235D05FEA837832D50B689B0605D48D
:100330000B6823F00A030B6080F821200168A942B2
:1003400001D1022219E0514501D1202215E0B1422C
:1003500002D14FF4007210E0B94202D14FF40052C2
:100360000BE0594502D14FF4003206E0714502D14D
:100370004FF4001201E04FF00072124908394A6050
:1003800080F82090816A00291AD0BDE8F05F084704
:10039000082505FA0CF5254212D01B0710D50B686D
:1003A00023F00E030B6090F84010C36B02FA01F1CA
:1003B0005960826380F8212080F82090016BE2E789
:1003C000BDE8F09F080002401C00024030000240DF
:1003D00044000240580002406C00024030B528B38F
:1003E00008C8134914221944B1FBF2F18900C16312
:1003F00010498163022141771A6843F6F0718A43FC
:10040000D0E900142143D0E902452C43214304697B
:100410002143446921438469214311431960002128
:100420004163012242770177084630BD012030BD8B
:10043000F8FFFDBF0000024070B5044690F82000B0
:10044000002501280CD0012084F8200094F82160B8
:100450000020012E06D084F820000225284670BD19
:10046000022070BD022684F82160A063206806681F
:1004700026F0010606602046FFF780FEE06A0028AD
:100480002068016802D041F00E0106E021F004016D
:1004900001602068016841F00A010160206801687C
:1004A00041F001010160D9E770B5044600F008F998
:1004B0000546601C02D004480078044400F000F9AE
:1004C000401BA042FAD370BD000000202DE9F84F78
:1004D000DFF8B891002409F1040A0AF1040B23465D
:1004E0000F270BF1040EC9E00125A5402A40AA42BE
:1004F0007DD1674ED1F804C0ACEB0608B44532D0CC
:1005000014DCBCF1030F3AD009DCBCF1000F2AD097
:10051000BCF1010F1CD0BCF1020F31D11DE0BCF1C8
:10052000110F17D0BCF1120F2AD119E0B8F5881FAE
:1005300019D006DCB8F5803F15D0B8F5801F1FD163
:1005400011E0B8F5001F0ED0B8F5041F18D10AE06D
:10055000CB6815E0CB681B1D12E0CB6808330FE0B9
:10056000CB680C330CE08B682BB1012B4FF00803E8
:1005700003D0456104E0042302E0056100E00023AC
:10058000FF2A01D8064601E000F104064FEA84057F
:1005900001D9A5F12005D6F8008007FA05FC28EA64
:1005A0000C0803FA05F548EA0508C6F800804D680E
:1005B000ED0062D5374DAE6946F00106AE61AD691A
:1005C00024F0030605F001050095334D06EB050CFC
:1005D000DCF80850A607360F07FA06F825EA0805E2
:1005E000DFF8B880404503D14FF0000817E044E041
:1005F000DFF8AC80404502D14FF001080FE0DFF892
:10060000A480404502D14FF0020808E0DFF898804E
:10061000404502D14FF0030801E04FF0040808FA0A
:1006200006F848EA0508CCF808804D68D9F800605B
:10063000ED034D4601D5164300E096432E604D680C
:10064000DAF80060AD03554601D5164300E0964345
:100650002E604D68DBF80060ED025D4601D5164363
:1006600000E096432E604D68DEF80060AD027546EE
:1006700001D5164300E096432E60641C0D682A469F
:10068000E5407FF431AFBDE8F88F00000004014081
:10069000000011100010024000000140000801405D
:1006A000000C014000100140001401408068084027
:1006B00000D0012070470AB1016170470904FBE7CF
:1006C00001488068704700000000002002488168EF
:1006D000027811448160704700000020074810B57F
:1006E000016841F010010160032000F079F800205A
:1006F00000F006F800F024F8002010BD00200240B1
:1007000070B50D4D04464FF47A712878B1FBF0F0C6
:100710000A490968B1FBF0F000F097FC48B9102CC9
:1007200007D200222146501E00F03AF800206C60EB
:1007300070BD012070BD0000000000200C000020F2
:100740000E4808B5816941F001018161816901F0BC
:1007500001010091C16941F08051C161C06900F09F
:1007600080500090052000F03BF80548416821F0DA
:10077000E06141F00071416008BD000000100240DE
:1007800000000140002809DB00F01F020121914018
:100790004009800000F1E020C0F80011704700001F
:1007A000F0B40E4B1B680C46C3F30223C3F10705DC
:1007B000042D00D90425191D072901D2002300E0CA
:1007C000DB1E012606FA05F1491E214099409E4094
:1007D000761E16403143F0BC01F04CBA0CED00E03F
:1007E000064900F0070208684FF6FF03184040EA88
:1007F0000220034A10430860704700000CED00E03F
:100800000000FA052DE9F0470F46050061D0434E80
:10081000306800F00700B84209D2306820F00700C5
:1008200038433060306800F00700B84251D1286882
:100830003B4C810712D5400703D5606840F4E06067
:1008400060602878000703D5606840F460506060FD
:100850006068A96820F0F000084360602878C0074D
:1008600028D06868012810D02168022810D0890794
:1008700000292EDA616821F0030101436160FFF76E
:100880001FFF804641F288390DE021688903EFE7B8
:100890008901EDE7FFF714FFA0EB0801494502D9F4
:1008A0000320BDE8F0876068696800F00C00B0EBD9
:1008B000810FEFD1306800F00700B8420BD93068E3
:1008C00020F0070038433060306800F00700B8427D
:1008D00001D00120E5E72878400705D56068E96880
:1008E00020F4E060084360602878000706D560685F
:1008F000296920F4605040EAC100606000F038F8D7
:100900006168084AC1F30311515CC8400649086098
:1009100006480068FFF7F4FE0020C2E7002002400E
:10092000001002408C1D00080C0000200400002074
:100930000448054900684968044AC1F30221515C32
:10094000C84070470C000020001002409C1D0008A9
:100950000448054900684968044AC1F3C221515C52
:10096000C84070470C000020001002409C1D000889
:1009700012A185B00FC98DE80F0014A0144A0068B9
:1009800004905168134801F00C03042B10D0082B7D
:100990000ED1C1F38343C9031DF803000AD5516882
:1009A00004AAC1F34041515C0A4A5043B0FBF1F044
:1009B00005B0704708494843FAE700000203040500
:1009C000060708090A0B0C0D0E0F1010010200009B
:1009D0000010024000127A0000093D002DE9F84F96
:1009E000040070D02078C04DC00749D06868C0F3BB
:1009F0008100012807D06868C0F38100022809D16E
:100A00006868C00306D52868800339D56068002867
:100A1000E7D035E06068B0F5803F0BD010B1B0F59D
:100A2000A02F11D0286820F480302860286820F496
:100A3000802002E0286840F480302860606890B12F
:100A4000FFF73EFE06460AE0286840F48020286052
:100A5000F0E700BFFFF734FE801B642873D82868D6
:100A60008003F7D50CE0FFF72BFE064605E000BF3C
:100A7000FFF726FE801B6428F0D828688003F7D48F
:100A800020789A4E80074FF001094FF0000839D5C1
:100A9000686810F00C0F07D06868C0F38100022866
:100AA00009D16868C00306D42868800714D5206976
:100AB000012808D110E02069B0B1C6F80090FFF716
:100AC000FFFD074605E00AE1FFF7FAFDC01B02281B
:100AD000C4D828688007F7D52868616920F0F80035
:100AE00040EAC10028600DE0C6F80080FFF7E8FD8D
:100AF000074604E0FFF7E4FDC01B022823D828685E
:100B00008007F7D4207800072CD57948A169D9B19E
:100B1000C0F80090FFF7D4FD074604E0FFF7D0FDD2
:100B2000C01B02280FD8686A8007F7D571484FF4B8
:100B3000FA510068B0FBF1F0009000BF0098411E30
:100B40000091FAD20EE080E0C0F80080FFF7B8FD17
:100B5000074604E0FFF7B4FDC01B022875D8686A99
:100B60008007F7D42078400760D5E8690027C000E7
:100B700008D4E86940F08050E861E869012700F096
:100B8000805000905C480168C90513D40168834611
:100B900041F480710160FFF793FD824606E000BFDB
:100BA000FFF78EFDA0EB0A0064284ED8DBF80000AA
:100BB000C005F5D5E06801280AD008B1052813D092
:100BC000286A20F001002862286A20F0040002E070
:100BD000286A40F001002862E06841F2883B98B141
:100BE000FFF76EFD82460BE0286A40F004002862A1
:100BF000EEE700BFFFF764FDA0EB0A0159455AD8A4
:100C0000286A8007F6D50CE0FFF75AFD824605E01A
:100C1000FFF756FDA0EB0A0159454CD8286A80071A
:100C2000F6D41FB1E86920F08050E861E06988B32C
:100C30006968C1F38101022944D00228C6F86080A6
:100C400004D0FFF73DFD044638E034E0FFF738FDFF
:100C5000074604E0FFF734FDC01B02282BD82868A4
:100C60008001F7D4206AB0F5803F05D16868A1689B
:100C700020F4003008436860D4E90801084369683B
:100C800021F4741108436860C6F86090FFF718FDFE
:100C9000044606E025E000BFFFF712FD001B022816
:100CA00009D828688001F7D51BE000BFFFF708FDD1
:100CB000001B022802D90320BDE8F88F28688001B4
:100CC000F4D40EE00128F7D06868226A00F480317D
:100CD000914204D1616A00F47010884201D0012071
:100CE000EAE70020E8E7000000100240000042426E
:100CF000800442420C0000200070004070B50400E7
:100D000009D0606A002540B125616561A56294F84B
:100D1000510040B10CE0012070BD6068B0F5827FE9
:100D2000F4D0E561F2E784F85050204600F040F836
:100D3000022084F851002068016821F04001016020
:100D4000A088218900F4827001F404410843A1893C
:100D500001F400610843217C01F002010843217D78
:100D600001F001010843218B01F400710843217F48
:100D700001F03801084394F8201001F08001084385
:100D8000218D01F40051084321680860A069042105
:100D900001EA1040216848602068C16921F40061BF
:100DA000C1616565012084F85100002070BD00001C
:100DB00030B585B000240094019402940394254D2D
:100DC0000368254802210322AB421AD1836943F408
:100DD00080538361836903F480530493836943F0F0
:100DE0000403836180691D4D00F004000490A0207D
:100DF000CDE90001039269462846FFF767FB4020D2
:100E00001EE0174DAB4222D1C36943F48043C36156
:100E1000C36903F480430493836943F00803836147
:100E20008069104D00F0080004904FF42040CDE997
:100E30000001039269462846FFF748FB4FF48040C3
:100E4000CDE90004694628460294FFF73FFB05B050
:100E500030BD000000300140001002400008014099
:100E600000380040000C01402DE9F84F044690F88E
:100E7000500000270A9E1D4692468B464FF00109FE
:100E800001280ED0012084F85000FFF719FC80469D
:100E900094F85100616801280CD0B1F5827F07D128
:100EA00002E00220BDE8F88FA16809B9042801D04A
:100EB0000227C2E0BBF1000F27D0BAF1000F24D007
:100EC0001DB394F85100042802D0052084F8510085
:100ED00000206065C4F838A0E587A587C4F830B065
:100EE000E586A5862064606420680168490603D40D
:100EF000016841F040010160E068B0F5006F606892
:100F000005D0E8B3012D46D07FE0012795E008B178
:100F1000012D39D1206B21680088C860206B801CAE
:100F20002063E08E401EE0862EE0206881688907FD
:100F30000FD5E18E69B1B9F1010F0AD1216B098892
:100F4000C160206B801C2063E08E401EE0864FF065
:100F5000000920688168C9070CD0E18F51B1C068D1
:100F6000A16B0880A06B801CA063E08F401EE0870F
:100F70004FF00109FFF7A4FBA0EB0800B04200E02E
:100F800009E001D3701C50D1E08E0028CDD1E08F54
:100F90000028CAD13FE0206B216800780873206BDD
:100FA000401C2063E08E401EE0862EE020688168B1
:100FB00089070FD5E18E69B1B9F1010F0AD1216B13
:100FC00009780173206B401C2063E08E401EE08690
:100FD0004FF0000920688168C9070CD0E18F51B13A
:100FE000C068A16B0870A06B401CA063E08F401E1E
:100FF000E0874FF00109FFF763FBA0EB0800B04268
:1010000002D3701C01D010E07EB1E08E0028CDD15B
:10101000E08F0028CAD142463146204600F020FC2D
:1010200028B101272020606507E0032705E0A068BC
:1010300018B92068C16880680090012084F85100C8
:10104000002084F8500038462CE710B5401EB0F15F
:10105000807F01D3012010BD4FF0E02460610F219B
:10106000601700F007FE0020A0610720206100202B
:1010700010BD10B504460068416994F83920C1F3E9
:10108000C011212A0BD151B1416921F08001416188
:10109000206B08B1FFF789F8204600F0D6FC2068E5
:1010A000416994F83A20C1F38011222A0BD151B141
:1010B000416921F040014161606B08B1FFF775F8AB
:1010C000204600F0B4FC002010BD704770B50268E7
:1010D00004461068D168536910F00F0F52D003F026
:1010E000010501F490762E435FD0C20705D0CA05F2
:1010F00003D5E26B42F00102E263420705D5DA074D
:1011000003D0E26B42F00202E263820705D5DA0700
:1011100003D0E26B42F00402E263020707D501F05C
:1011200020022A4303D0E26B42F00802E263E26B42
:10113000002A33D0800604D5880602D5204600F068
:101140008DFC20684069E16BC0F38010090700D472
:1011500028B3204600F06BFC2068416949061AD587
:10116000416921F040014161606BA0B12D494163AB
:10117000606BFFF73DF8002810D0606B416BBDE855
:1011800070400847830610D58B060ED52046BDE873
:10119000704000F063BC2046FFF797FF70BD20460B
:1011A000FFF793FF0020E06370BD03062BD50B060D
:1011B00029D594F839002128F6D1A068B0F5805FD0
:1011C00001D12069B0B1206A411C216221680078F8
:1011D0004860E08C401E0004000CE084E4D12068EC
:1011E000C16821F08001C1602068C16841F0400100
:1011F000C16070BD206A0088C0F308005060206A9A
:10120000801C2062E5E74006F3D54806F1D5D16899
:10121000204621F04001D160202184F8391000F0EF
:1012200034F970BD8F19000870B5040004D094F82B
:101230003900002510B106E0012070BD84F8385057
:10124000204600F023F8242084F839002068C16883
:1012500021F40051C160204600F046FC206801697D
:1012600021F4904101612068416921F02A01416126
:101270002068C16841F40051C160E563202084F812
:10128000390084F83A00002070BD000070B586B0C7
:1012900000250646009501950295039500682249B0
:1012A00088423ED12149886940F48040886188693C
:1012B00000F480400490886940F0040088618869E7
:1012C0001B4C00F00400049048150090022001908F
:1012D0000320039069462046FFF7F8F82015CDE972
:1012E0000005694620460295FFF7F0F8124C1148B8
:1012F000C4E900058020C4E9025025616561A5614B
:101300002046E561FFF76AF808B1FEF74DFF746308
:101310000022114625206662FFF742FA2520FFF7DA
:1013200031FA06B070BD00000038014000100240E4
:10133000000801405800024008050020F8B50446A6
:1013400090F83A0020283CD1C1B3BAB394F83800E1
:10135000012836D0012084F83800A162A28500253A
:10136000E563222084F83A00636B17489862636B48
:101370001648D862636B16481863606B1346456362
:101380000846666B216802463046091DFFF754F88F
:10139000206801684168009184F83850C16841F4C0
:1013A0008071C1602068416941F00101416120689C
:1013B000416941F0400141610020F8BDFFE7012093
:1013C000FBE70220F9E70000E9190008251A0008E8
:1013D0009F190008704770472DE9F843044690F8BC
:1013E00039001F4616460D4620284CD1C5B1BEB166
:1013F00094F83800012846D0012084F838004FF0D6
:101400000008C4F83C80212084F83900FFF758F91F
:10141000A6848146E684A068B0F5805F03D004E02E
:101420000120BDE8F883206928B12E465FF0000551
:1014300084F838800EE00026FAE78021204600F08C
:10144000AFFBA0B9AEB116F8010B21684860E08C83
:10145000401EE084E08C4B464FF0000200970028CD
:10146000EBD14FF04001204600F09AFB30B1032051
:10147000D7E735F8020BC0F30800E6E7202084F830
:1014800039000020CDE70220CBE77047FEE70000DF
:10149000094808B5416941F00101416140690022F4
:1014A00000F00100009011460F20FFF779F9BDE828
:1014B00008400F20FFF766B90010024030B585B034
:1014C000002420480094019402940394816941F01F
:1014D00010018161816901F010010491816941F07D
:1014E00020018161816901F020010491816941F04D
:1014F00004018161816901F004010491816941F075
:10150000080181618069104D00F0080004900122FB
:101510000C212846FFF7CFF80C2000900120CDE9E0
:1015200001040220039069462846FEF7CFFF1020F1
:10153000CDE90004694628460294FEF7C7FF05B0CE
:1015400030BD00000010024000080140104810B5F6
:101550000E4901604FF48271416000218160C160D9
:101560004FF400720161C0E905121022C0E90721A1
:10157000416281620A21C162FFF7C0FB002803D0EB
:10158000BDE81040FEF710BE10BD00000030014065
:10159000140000200F4810B50D4901604FF482710E
:1015A000416000218160C1604FF400720161C0E9B7
:1015B0000512C1610162416281620A21C162FFF7C5
:1015C0009DFB002803D0BDE81040FEF7EDBD10BD27
:1015D000003800406C0000200C4810B50A4901603A
:1015E0004FF4E1314160002181600C22C160C0E90B
:1015F00004128161C161FFF717FE002803D0BDE826
:101600001040FEF7D1BD10BD00380140C8040020D5
:10161000FEE770471CB50FA10522D1E90001CDE915
:1016200000016946302000F0CBF805226946102001
:1016300000F024F8002069460A5CA52A03D1401C6A
:10164000C0B20528F8D3052801D001201CBD002018
:101650001CBD0000A5A5A5A5A500000010B5064C61
:10166000002208212046FFF726F820460122BDE887
:1016700010400421FFF71FB8000801402DE9F04198
:10168000DFF83C8015460F46044600220421404600
:10169000FFF711F8204600F0D3F80646002405E0D5
:1016A000FF2000F0CDF83855641CE4B2AC42F7D30B
:1016B000012204214046FEF7FEFF3046BDE8F081DE
:1016C0000008014070B50A4D044600220421284656
:1016D000FEF7F1FF204600F0B3F8FF2000F0B0F86D
:1016E0000446012204212846FEF7E5FF204670BD8E
:1016F0000008014010B5184C002208212046FEF7D2
:10170000DAFF05221549302000F05AF81349052266
:10171000491D2A2000F054F80121212000F074F81E
:101720000121222000F070F81A21242000F06CF82A
:101730002821252000F068F80F21262000F064F809
:101740000E21202000F060F820460122BDE8104064
:101750000821FEF7B0BF000000080140A41D0008EA
:1017600070B5164C0546002208212046FEF7A3FF5F
:1017700020222946A02000F023F80122082120463B
:10178000FEF799FF10212046FEF790FF0028F9D1BF
:101790000720FFF797FF04460146272000F034F8A2
:1017A000E00605D5FF21E12000F02EF8102070BDE5
:1017B000A00601D5202070BDFF2070BD00080140AB
:1017C0002DE9F041DFF83C8016460D460446002224
:1017D00004214046FEF76FFF204600F031F807462F
:1017E000002405E015F8010B00F02AF8641CE4B2AF
:1017F000B442F7D3012204214046FEF75CFF38468D
:10180000BDE8F0810008014070B50B4D0E4604465E
:10181000002204212846FEF74EFF204600F010F873
:101820000446304600F00CF8012204212846FEF759
:1018300042FF204670BD00000008014070470000D4
:1018400001B582B04FF47A700090012301AA02A979
:101850000248FFF709FB9DF804000EBD14000020AC
:1018600038B50B46009204460022802100F008F8AB
:10187000002804D0606D40F020006065032038BD72
:101880002DE9F8431E46914688460446089DFEF71A
:1018900017FF401B351AFEF713FF0746254800685F
:1018A000C0F3CB30684338E0701C37D0FEF708FF38
:1018B000C01BA84203D215B1009860B32CE0206889
:1018C000416821F0E00141606068B0F5827F0BD192
:1018D000A068B0F5004F02D0B0F5806F04D1206849
:1018E000016821F040010160A06AB0F5005F09D1F4
:1018F0002068016821F4005101602068016841F40A
:1019000000510160012084F85100002084F850004B
:101910000320BDE8F8830025401E00902068816800
:1019200038EA010004D000214945BDD10020F0E78C
:101930000121F9E70C0000207047FEF7C7BE30B563
:101940008FB028216846FEF7F4FB14210AA8FEF7A1
:10195000F0FB01210804CDE90010002402940225C7
:101960000491CDE907504FF4E01009906846FFF765
:1019700035F80F20CDE90A056802CDE90C400221B7
:101980000AA80E94FEF73EFF0FB030BD704710B5A9
:10199000406A0021C185C184FFF797FB10BD70B577
:1019A000446A2068406994F83910C0F3C0100025DB
:1019B000212904D118B1E584204600F046F82068BA
:1019C000406994F83A10C0F38010222904D118B16C
:1019D000E585204600F02BF8E06B40F01000E06356
:1019E0002046FFF772FB70BD10B50146406A0968DA
:1019F0000968890613D40021C1850168CA6822F4E8
:101A00008072CA6001684A6922F001024A61016875
:101A10004A6922F040024A61202180F83A10FFF71B
:101A2000D9FC10BD10B5406AFFF7D5FC10BD0168A8
:101A3000CA6822F49072CA6001684A6922F0010201
:101A40004A61202180F83A1070470168CA6822F084
:101A5000C002CA60202180F83910704710B590F894
:101A60003A10222901D0022010BD82684FF4805321
:101A70009A4201D1016921B1816A9A421BD04AB1CF
:101A80000AE00268816A5268C2F308020A80816A29
:101A9000891C08E0026972B10268526802F07F0294
:101AA0000A70816A491C8162C18D491E0904090CB2
:101AB000C18503D016E002685268F1E70168CA6880
:101AC00022F02002CA600168CA6822F48072CA60EB
:101AD00001684A6922F001024A61202180F83A1027
:101AE000FFF778FC002010BD70B50446006801695E
:101AF000E26821F44051114301612169A068084363
:101B0000616908432168CA6841F20C639A43024341
:101B1000CA6020684169A26921F4407111434161A2
:101B20001E492068884202D1FEF712FF01E0FEF74D
:101B3000FFFE00EBC00101EB001260686421800031
:101B4000B2FBF0F3B3FBF1F36FF018067343B2FB93
:101B5000F0F5B2FBF0F605EB8305322303EB051538
:101B6000B5FBF1F5B6FBF1F605F0F00505EB061552
:101B7000B2FBF0F6B2FBF0F0B0FBF1F06FF0180240
:101B8000504306EB800003EB0010B0FBF1F021683E
:101B900000F00F002844886070BD0000003801404C
:101BA0002DE9F041984617460E460446069D1DE075
:101BB000681C1BD02DB1FEF783FDA0EB0800A842E6
:101BC00014D92068C16821F4D071C16020684169CE
:101BD00021F001014161202084F8390084F83A00A5
:101BE000002084F838000320BDE8F08120680068F8
:101BF00036EA000004D00020B842D9D00020F3E734
:101C00000120F9E710B5044800F00AF8BDE81040DB
:101C10000148FFF75BBA0000C8040020FEE700009F
:101C200038B500680068C043C00618D40C4C206862
:101C30000168406800902046FFF71BFA606B00685F
:101C40004068A4F20441C0F580604880012001F89A
:101C5000040B82022046BDE83840FFF76FBB38BD59
:101C6000C8040020014A024900F023B8D51C00082E
:101C7000100000200907090E002804DB00F1E02015
:101C800080F80014704700F00F0000F1E02080F8A9
:101C9000141D704702E008C8121F08C1002AFAD1BB
:101CA00070477047002001E001C1121F002AFBD1DC
:101CB00070472DE9F04116460F460446002503E023
:101CC0003946B047641C6D1C20780028F8D128469E
:101CD000BDE8F08113B54FF6FF7301226946024853
:101CE000FFF77AFB00981CBDC80400208AB00024CE
:101CF000FEF7F4FCFFF723FEFFF7E0FBFFF7C8FB5E
:101D0000FFF724FCFFF746FCFFF766FCFFF7A6FC95
:101D100040F6B83505E012A0FFF7A4FF2846FEF70D
:101D2000C3FBFFF777FC0028F5D100216846641C4F
:101D3000E4B27E2C00D920244454491C89B22029C5
:101D4000F5D3FFF7D7FC2846FEF7AEFB6846FFF752
:101D500007FD2028F7D106A0FFF784FFF3E7000076
:101D60006E6F206E726632346C30312020000000BD
:101D70007472616E736D697420646174612073752F
:101D8000636363657373202000000000000000009F
:101D9000000000000102030406070809000000001B
:101DA00001020304344310100134431010010000F9
:101DB000D01D00080000002014000000941C000842
:101DC000E41D0008140000203C090000A41C0008C9
:101DD0000100000010000000000000000024F400DA
:041DE00000000000FF
:04000005080000ED02
:00000001FF
